:1000000012C06FC020C01FC01EC01DC01CC01BC0BE
:100010001AC019C018C04DC016C072C014C013C099
:1000200012C011C010C011241FBECFE5D2E0DEBF48
:10003000CDBF20E0A0E6B0E001C01D92A236B2071D
:10004000E1F702D06CC0DCCF8AB388638ABB8AB385
:10005000897F8ABBB89ABE9881E087B99FEE96B92E
:1000600013B890EC9BBF85BF78948091600090910D
:100070006100893C910548F4DD9ADB988FE493ECAC
:100080000197F1F700C00000F0CF809160009091DF
:1000900061008032934048F0DD98DB9A8FE493EC66
:1000A0000197F1F700C00000E0CF8BB3877D8BBBD9
:1000B000DCCF1F920F920FB60F9211242F938F93C4
:1000C0009F9384B125B190E0922B9093610080932F
:1000D00060009F918F912F910F900FBE0F901F90F6
:1000E00018951F920F920FB60F921124B69902C065
:1000F000C09A01C0C0980F900FBE0F901F90189526
:100100001F920F920FB60F921124CA9902C0DC9A67
:1001100001C0DC980F900FBE0F901F901895F894B7
:02012000FFCF0F
:00000001FF
